{
  "_format": "hh-sol-artifact-1",
  "contractName": "DocumentVerification",
  "sourceName": "contracts/DocumentVerification.sol",
  "abi": [
    {
      "anonymous": false,
      "inputs": [
        {
          "indexed": true,
          "internalType": "bytes32",
          "name": "hash",
          "type": "bytes32"
        },
        {
          "indexed": true,
          "internalType": "address",
          "name": "signer",
          "type": "address"
        },
        {
          "indexed": false,
          "internalType": "uint256",
          "name": "timestamp",
          "type": "uint256"
        }
      ],
      "name": "DocumentRevoked",
      "type": "event"
    },
    {
      "anonymous": false,
      "inputs": [
        {
          "indexed": true,
          "internalType": "bytes32",
          "name": "hash",
          "type": "bytes32"
        },
        {
          "indexed": true,
          "internalType": "address",
          "name": "signer",
          "type": "address"
        },
        {
          "indexed": false,
          "internalType": "uint256",
          "name": "timestamp",
          "type": "uint256"
        },
        {
          "indexed": false,
          "internalType": "uint256",
          "name": "blockNumber",
          "type": "uint256"
        }
      ],
      "name": "DocumentStored",
      "type": "event"
    },
    {
      "inputs": [
        {
          "internalType": "bytes32",
          "name": "hash",
          "type": "bytes32"
        }
      ],
      "name": "getDocumentInfo",
      "outputs": [
        {
          "internalType": "bool",
          "name": "exists",
          "type": "bool"
        },
        {
          "internalType": "address",
          "name": "signer",
          "type": "address"
        },
        {
          "internalType": "uint256",
          "name": "timestamp",
          "type": "uint256"
        },
        {
          "internalType": "uint256",
          "name": "blockNumber",
          "type": "uint256"
        }
      ],
      "stateMutability": "view",
      "type": "function"
    },
    {
      "inputs": [
        {
          "internalType": "address",
          "name": "user",
          "type": "address"
        },
        {
          "internalType": "bytes32",
          "name": "hash",
          "type": "bytes32"
        }
      ],
      "name": "hasDocument",
      "outputs": [
        {
          "internalType": "bool",
          "name": "",
          "type": "bool"
        }
      ],
      "stateMutability": "view",
      "type": "function"
    },
    {
      "inputs": [
        {
          "internalType": "bytes32",
          "name": "hash",
          "type": "bytes32"
        },
        {
          "internalType": "uint256",
          "name": "timestamp",
          "type": "uint256"
        },
        {
          "internalType": "bytes",
          "name": "signature",
          "type": "bytes"
        }
      ],
      "name": "storeDocumentHash",
      "outputs": [],
      "stateMutability": "nonpayable",
      "type": "function"
    },
    {
      "inputs": [
        {
          "internalType": "bytes32",
          "name": "hash",
          "type": "bytes32"
        },
        {
          "internalType": "address",
          "name": "signer",
          "type": "address"
        },
        {
          "internalType": "bytes",
          "name": "signature",
          "type": "bytes"
        }
      ],
      "name": "verifyDocument",
      "outputs": [
        {
          "internalType": "bool",
          "name": "success",
          "type": "bool"
        },
        {
          "internalType": "bool",
          "name": "verified",
          "type": "bool"
        },
        {
          "internalType": "bool",
          "name": "signatureValid",
          "type": "bool"
        },
        {
          "internalType": "uint256",
          "name": "blockNumber",
          "type": "uint256"
        },
        {
          "internalType": "uint256",
          "name": "timestamp",
          "type": "uint256"
        }
      ],
      "stateMutability": "view",
      "type": "function"
    }
  ],
  "bytecode": "0x608060405234801561001057600080fd5b50610ce0806100206000396000f3fe608060405234801561001057600080fd5b506004361061004c5760003560e01c8063090b0a30146100515780638e89410114610084578063bc6fda25146100b4578063dd4ad4b6146100d0575b600080fd5b61006b600480360381019061006691906106ec565b610104565b60405161007b949392919061078e565b60405180910390f35b61009e600480360381019061009991906107ff565b61019c565b6040516100ab919061083f565b60405180910390f35b6100ce60048036038101906100c991906108eb565b610204565b005b6100ea60048036038101906100e5919061095f565b61045e565b6040516100fb9594939291906109d3565b60405180910390f35b6000806000806000806000878152602001908152602001600020905060008160010154148061014157508060030160009054906101000a900460ff165b1561015a57600080600080945094509450945050610195565b60018160000160009054906101000a900473ffffffffffffffffffffffffffffffffffffffff16826001015483600201549450945094509450505b9193509193565b6000600160008473ffffffffffffffffffffffffffffffffffffffff1673ffffffffffffffffffffffffffffffffffffffff168152602001908152602001600020600083815260200190815260200160002060009054906101000a900460ff16905092915050565b61021084338484610565565b61024f576040517f08c379a000000000000000000000000000000000000000000000000000000000815260040161024690610a83565b60405180910390fd5b60008085815260200190815260200160002060030160009054906101000a900460ff16158015610295575060008060008681526020019081526020016000206001015414155b156102d5576040517f08c379a00000000000000000000000000000000000000000000000000000000081526004016102cc90610aef565b60405180910390fd5b60405180608001604052803373ffffffffffffffffffffffffffffffffffffffff1681526020018481526020014381526020016000151581525060008086815260200190815260200160002060008201518160000160006101000a81548173ffffffffffffffffffffffffffffffffffffffff021916908373ffffffffffffffffffffffffffffffffffffffff160217905550602082015181600101556040820151816002015560608201518160030160006101000a81548160ff02191690831515021790555090505060018060003373ffffffffffffffffffffffffffffffffffffffff1673ffffffffffffffffffffffffffffffffffffffff168152602001908152602001600020600086815260200190815260200160002060006101000a81548160ff0219169083151502179055503373ffffffffffffffffffffffffffffffffffffffff16847ffe642df14464ed930326c9be263d534475951f5c3db35420ad7e6070b173d38a8543604051610450929190610b0f565b60405180910390a350505050565b6000806000806000806000808b8152602001908152602001600020905060008160010154148061049c57508060030160009054906101000a900460ff165b156104b9576000806000806000955095509550955095505061055a565b8873ffffffffffffffffffffffffffffffffffffffff168160000160009054906101000a900473ffffffffffffffffffffffffffffffffffffffff1673ffffffffffffffffffffffffffffffffffffffff161461052f57600080600083600201548460010154955095509550955095505061055a565b600061053d8b8b8b8b610565565b905060018082846002015485600101549650965096509650965050505b945094509450945094565b600080856040516020016105799190610bb0565b6040516020818303038152906040528051906020012090506000806000604187879050146105ae5760009450505050506106a4565b602087013592506040870135915060ff6041880135169050601b8160ff1610156105e257601b816105df9190610c12565b90505b7f7fffffffffffffffffffffffffffffff5d576e7357a4501ddfe92f46681b20a08260001c111561061a5760009450505050506106a4565b60006001858386866040516000815260200160405260405161063f9493929190610c65565b6020604051602081039080840390855afa158015610661573d6000803e3d6000fd5b5050506020604051035190508873ffffffffffffffffffffffffffffffffffffffff168173ffffffffffffffffffffffffffffffffffffffff1614955050505050505b949350505050565b600080fd5b600080fd5b6000819050919050565b6106c9816106b6565b81146106d457600080fd5b50565b6000813590506106e6816106c0565b92915050565b600060208284031215610702576107016106ac565b5b6000610710848285016106d7565b91505092915050565b60008115159050919050565b61072e81610719565b82525050565b600073ffffffffffffffffffffffffffffffffffffffff82169050919050565b600061075f82610734565b9050919050565b61076f81610754565b82525050565b6000819050919050565b61078881610775565b82525050565b60006080820190506107a36000830187610725565b6107b06020830186610766565b6107bd604083018561077f565b6107ca606083018461077f565b95945050505050565b6107dc81610754565b81146107e757600080fd5b50565b6000813590506107f9816107d3565b92915050565b60008060408385031215610816576108156106ac565b5b6000610824858286016107ea565b9250506020610835858286016106d7565b9150509250929050565b60006020820190506108546000830184610725565b92915050565b61086381610775565b811461086e57600080fd5b50565b6000813590506108808161085a565b92915050565b600080fd5b600080fd5b600080fd5b60008083601f8401126108ab576108aa610886565b5b8235905067ffffffffffffffff8111156108c8576108c761088b565b5b6020830191508360018202830111156108e4576108e3610890565b5b9250929050565b60008060008060608587031215610905576109046106ac565b5b6000610913878288016106d7565b945050602061092487828801610871565b935050604085013567ffffffffffffffff811115610945576109446106b1565b5b61095187828801610895565b925092505092959194509250565b60008060008060608587031215610979576109786106ac565b5b6000610987878288016106d7565b9450506020610998878288016107ea565b935050604085013567ffffffffffffffff8111156109b9576109b86106b1565b5b6109c587828801610895565b925092505092959194509250565b600060a0820190506109e86000830188610725565b6109f56020830187610725565b610a026040830186610725565b610a0f606083018561077f565b610a1c608083018461077f565b9695505050505050565b600082825260208201905092915050565b7f496e76616c6964207369676e6174757265000000000000000000000000000000600082015250565b6000610a6d601183610a26565b9150610a7882610a37565b602082019050919050565b60006020820190508181036000830152610a9c81610a60565b9050919050565b7f446f63756d656e7420616c726561647920657869737473000000000000000000600082015250565b6000610ad9601783610a26565b9150610ae482610aa3565b602082019050919050565b60006020820190508181036000830152610b0881610acc565b9050919050565b6000604082019050610b24600083018561077f565b610b31602083018461077f565b9392505050565b600081905092915050565b7f19457468657265756d205369676e6564204d6573736167653a0a333200000000600082015250565b6000610b79601c83610b38565b9150610b8482610b43565b601c82019050919050565b6000819050919050565b610baa610ba5826106b6565b610b8f565b82525050565b6000610bbb82610b6c565b9150610bc78284610b99565b60208201915081905092915050565b600060ff82169050919050565b7f4e487b7100000000000000000000000000000000000000000000000000000000600052601160045260246000fd5b6000610c1d82610bd6565b9150610c2883610bd6565b9250828201905060ff811115610c4157610c40610be3565b5b92915050565b610c50816106b6565b82525050565b610c5f81610bd6565b82525050565b6000608082019050610c7a6000830187610c47565b610c876020830186610c56565b610c946040830185610c47565b610ca16060830184610c47565b9594505050505056fea2646970667358221220e0a456f714a18d5969fa374453b508d89e5c5300c9dfe1175a86ffb6421b223264736f6c63430008140033",
  "linkReferences": {},
  "deployedLinkReferences": {}
}